{
  "_format": "hh-sol-artifact-1",
  "contractName": "Saluminator",
  "sourceName": "contracts/Saluminator.sol",
  "abi": [
    {
      "inputs": [
        {
          "internalType": "address",
          "name": "telemetryContract",
          "type": "address"
        }
      ],
      "stateMutability": "nonpayable",
      "type": "constructor"
    },
    {
      "anonymous": false,
      "inputs": [
        {
          "indexed": true,
          "internalType": "address",
          "name": "owner",
          "type": "address"
        },
        {
          "indexed": true,
          "internalType": "address",
          "name": "approved",
          "type": "address"
        },
        {
          "indexed": true,
          "internalType": "uint256",
          "name": "tokenId",
          "type": "uint256"
        }
      ],
      "name": "Approval",
      "type": "event"
    },
    {
      "anonymous": false,
      "inputs": [
        {
          "indexed": true,
          "internalType": "address",
          "name": "owner",
          "type": "address"
        },
        {
          "indexed": true,
          "internalType": "address",
          "name": "operator",
          "type": "address"
        },
        {
          "indexed": false,
          "internalType": "bool",
          "name": "approved",
          "type": "bool"
        }
      ],
      "name": "ApprovalForAll",
      "type": "event"
    },
    {
      "anonymous": false,
      "inputs": [
        {
          "indexed": true,
          "internalType": "address",
          "name": "previousOwner",
          "type": "address"
        },
        {
          "indexed": true,
          "internalType": "address",
          "name": "newOwner",
          "type": "address"
        }
      ],
      "name": "OwnershipTransferred",
      "type": "event"
    },
    {
      "anonymous": false,
      "inputs": [
        {
          "indexed": true,
          "internalType": "address",
          "name": "from",
          "type": "address"
        },
        {
          "indexed": true,
          "internalType": "address",
          "name": "to",
          "type": "address"
        },
        {
          "indexed": true,
          "internalType": "uint256",
          "name": "tokenId",
          "type": "uint256"
        }
      ],
      "name": "Transfer",
      "type": "event"
    },
    {
      "inputs": [
        {
          "internalType": "address",
          "name": "to",
          "type": "address"
        },
        {
          "internalType": "uint256",
          "name": "tokenId",
          "type": "uint256"
        }
      ],
      "name": "approve",
      "outputs": [],
      "stateMutability": "nonpayable",
      "type": "function"
    },
    {
      "inputs": [
        {
          "internalType": "address",
          "name": "owner",
          "type": "address"
        }
      ],
      "name": "balanceOf",
      "outputs": [
        {
          "internalType": "uint256",
          "name": "",
          "type": "uint256"
        }
      ],
      "stateMutability": "view",
      "type": "function"
    },
    {
      "inputs": [
        {
          "internalType": "uint256",
          "name": "tokenId",
          "type": "uint256"
        }
      ],
      "name": "getApproved",
      "outputs": [
        {
          "internalType": "address",
          "name": "",
          "type": "address"
        }
      ],
      "stateMutability": "view",
      "type": "function"
    },
    {
      "inputs": [
        {
          "internalType": "address",
          "name": "owner",
          "type": "address"
        },
        {
          "internalType": "address",
          "name": "operator",
          "type": "address"
        }
      ],
      "name": "isApprovedForAll",
      "outputs": [
        {
          "internalType": "bool",
          "name": "",
          "type": "bool"
        }
      ],
      "stateMutability": "view",
      "type": "function"
    },
    {
      "inputs": [],
      "name": "name",
      "outputs": [
        {
          "internalType": "string",
          "name": "",
          "type": "string"
        }
      ],
      "stateMutability": "view",
      "type": "function"
    },
    {
      "inputs": [],
      "name": "owner",
      "outputs": [
        {
          "internalType": "address",
          "name": "",
          "type": "address"
        }
      ],
      "stateMutability": "view",
      "type": "function"
    },
    {
      "inputs": [
        {
          "internalType": "uint256",
          "name": "tokenId",
          "type": "uint256"
        }
      ],
      "name": "ownerOf",
      "outputs": [
        {
          "internalType": "address",
          "name": "",
          "type": "address"
        }
      ],
      "stateMutability": "view",
      "type": "function"
    },
    {
      "inputs": [],
      "name": "renounceOwnership",
      "outputs": [],
      "stateMutability": "nonpayable",
      "type": "function"
    },
    {
      "inputs": [
        {
          "internalType": "address",
          "name": "to",
          "type": "address"
        },
        {
          "internalType": "uint256",
          "name": "tokenId",
          "type": "uint256"
        },
        {
          "internalType": "string",
          "name": "uri",
          "type": "string"
        }
      ],
      "name": "safeMint",
      "outputs": [],
      "stateMutability": "nonpayable",
      "type": "function"
    },
    {
      "inputs": [
        {
          "internalType": "address",
          "name": "from",
          "type": "address"
        },
        {
          "internalType": "address",
          "name": "to",
          "type": "address"
        },
        {
          "internalType": "uint256",
          "name": "tokenId",
          "type": "uint256"
        }
      ],
      "name": "safeTransferFrom",
      "outputs": [],
      "stateMutability": "nonpayable",
      "type": "function"
    },
    {
      "inputs": [
        {
          "internalType": "address",
          "name": "from",
          "type": "address"
        },
        {
          "internalType": "address",
          "name": "to",
          "type": "address"
        },
        {
          "internalType": "uint256",
          "name": "tokenId",
          "type": "uint256"
        },
        {
          "internalType": "bytes",
          "name": "_data",
          "type": "bytes"
        }
      ],
      "name": "safeTransferFrom",
      "outputs": [],
      "stateMutability": "nonpayable",
      "type": "function"
    },
    {
      "inputs": [
        {
          "internalType": "address",
          "name": "operator",
          "type": "address"
        },
        {
          "internalType": "bool",
          "name": "approved",
          "type": "bool"
        }
      ],
      "name": "setApprovalForAll",
      "outputs": [],
      "stateMutability": "nonpayable",
      "type": "function"
    },
    {
      "inputs": [
        {
          "internalType": "bytes4",
          "name": "interfaceId",
          "type": "bytes4"
        }
      ],
      "name": "supportsInterface",
      "outputs": [
        {
          "internalType": "bool",
          "name": "",
          "type": "bool"
        }
      ],
      "stateMutability": "view",
      "type": "function"
    },
    {
      "inputs": [],
      "name": "symbol",
      "outputs": [
        {
          "internalType": "string",
          "name": "",
          "type": "string"
        }
      ],
      "stateMutability": "view",
      "type": "function"
    },
    {
      "inputs": [
        {
          "internalType": "uint256",
          "name": "index",
          "type": "uint256"
        }
      ],
      "name": "tokenByIndex",
      "outputs": [
        {
          "internalType": "uint256",
          "name": "",
          "type": "uint256"
        }
      ],
      "stateMutability": "view",
      "type": "function"
    },
    {
      "inputs": [
        {
          "internalType": "address",
          "name": "owner",
          "type": "address"
        },
        {
          "internalType": "uint256",
          "name": "index",
          "type": "uint256"
        }
      ],
      "name": "tokenOfOwnerByIndex",
      "outputs": [
        {
          "internalType": "uint256",
          "name": "",
          "type": "uint256"
        }
      ],
      "stateMutability": "view",
      "type": "function"
    },
    {
      "inputs": [
        {
          "internalType": "uint256",
          "name": "tokenId",
          "type": "uint256"
        }
      ],
      "name": "tokenURI",
      "outputs": [
        {
          "internalType": "string",
          "name": "",
          "type": "string"
        }
      ],
      "stateMutability": "view",
      "type": "function"
    },
    {
      "inputs": [],
      "name": "totalSupply",
      "outputs": [
        {
          "internalType": "uint256",
          "name": "",
          "type": "uint256"
        }
      ],
      "stateMutability": "view",
      "type": "function"
    },
    {
      "inputs": [
        {
          "internalType": "address",
          "name": "from",
          "type": "address"
        },
        {
          "internalType": "address",
          "name": "to",
          "type": "address"
        },
        {
          "internalType": "uint256",
          "name": "tokenId",
          "type": "uint256"
        }
      ],
      "name": "transferFrom",
      "outputs": [],
      "stateMutability": "nonpayable",
      "type": "function"
    },
    {
      "inputs": [
        {
          "internalType": "address",
          "name": "newOwner",
          "type": "address"
        }
      ],
      "name": "transferOwnership",
      "outputs": [],
      "stateMutability": "nonpayable",
      "type": "function"
    }
  ],
  "bytecode": "0x60806040523480156200001157600080fd5b50604051620046b1380380620046b18339818101604052810190620000379190620002d4565b6040518060400160405280600b81526020017f53616c756d696e61746f720000000000000000000000000000000000000000008152506040518060400160405280600681526020017f534c4d4e545200000000000000000000000000000000000000000000000000008152508160009080519060200190620000bb9291906200020d565b508060019080519060200190620000d49291906200020d565b505050620000f7620000eb6200013f60201b60201c565b6200014760201b60201c565b80600c60006101000a81548173ffffffffffffffffffffffffffffffffffffffff021916908373ffffffffffffffffffffffffffffffffffffffff16021790555050620003b3565b600033905090565b6000600b60009054906101000a900473ffffffffffffffffffffffffffffffffffffffff16905081600b60006101000a81548173ffffffffffffffffffffffffffffffffffffffff021916908373ffffffffffffffffffffffffffffffffffffffff1602179055508173ffffffffffffffffffffffffffffffffffffffff168173ffffffffffffffffffffffffffffffffffffffff167f8be0079c531659141344cd1fd0a4f28419497f9722a3daafe3b4186f6b6457e060405160405180910390a35050565b8280546200021b9062000334565b90600052602060002090601f0160209004810192826200023f57600085556200028b565b82601f106200025a57805160ff19168380011785556200028b565b828001600101855582156200028b579182015b828111156200028a5782518255916020019190600101906200026d565b5b5090506200029a91906200029e565b5090565b5b80821115620002b95760008160009055506001016200029f565b5090565b600081519050620002ce8162000399565b92915050565b600060208284031215620002e757600080fd5b6000620002f784828501620002bd565b91505092915050565b60006200030d8262000314565b9050919050565b600073ffffffffffffffffffffffffffffffffffffffff82169050919050565b600060028204905060018216806200034d57607f821691505b602082108114156200036457620003636200036a565b5b50919050565b7f4e487b7100000000000000000000000000000000000000000000000000000000600052602260045260246000fd5b620003a48162000300565b8114620003b057600080fd5b50565b6142ee80620003c36000396000f3fe608060405234801561001057600080fd5b506004361061012c5760003560e01c806370a08231116100ad578063b88d4fde11610071578063b88d4fde14610343578063c87b56dd1461035f578063cd279c7c1461038f578063e985e9c5146103ab578063f2fde38b146103db5761012c565b806370a08231146102b1578063715018a6146102e15780638da5cb5b146102eb57806395d89b4114610309578063a22cb465146103275761012c565b806323b872dd116100f457806323b872dd146101e95780632f745c591461020557806342842e0e146102355780634f6ccce7146102515780636352211e146102815761012c565b806301ffc9a71461013157806306fdde0314610161578063081812fc1461017f578063095ea7b3146101af57806318160ddd146101cb575b600080fd5b61014b60048036038101906101469190612c38565b6103f7565b60405161015891906133d6565b60405180910390f35b610169610409565b60405161017691906133f1565b60405180910390f35b61019960048036038101906101949190612c8a565b61049b565b6040516101a6919061336f565b60405180910390f35b6101c960048036038101906101c49190612b54565b610520565b005b6101d3610638565b6040516101e091906136b3565b60405180910390f35b61020360048036038101906101fe9190612a4e565b610645565b005b61021f600480360381019061021a9190612b54565b6106a5565b60405161022c91906136b3565b60405180910390f35b61024f600480360381019061024a9190612a4e565b61074a565b005b61026b60048036038101906102669190612c8a565b61076a565b60405161027891906136b3565b60405180910390f35b61029b60048036038101906102969190612c8a565b610801565b6040516102a8919061336f565b60405180910390f35b6102cb60048036038101906102c691906129e9565b6108b3565b6040516102d891906136b3565b60405180910390f35b6102e961096b565b005b6102f36109f3565b604051610300919061336f565b60405180910390f35b610311610a1d565b60405161031e91906133f1565b60405180910390f35b610341600480360381019061033c9190612b18565b610aaf565b005b61035d60048036038101906103589190612a9d565b610ac5565b005b61037960048036038101906103749190612c8a565b610b27565b60405161038691906133f1565b60405180910390f35b6103a960048036038101906103a49190612b90565b610f76565b005b6103c560048036038101906103c09190612a12565b610f8f565b6040516103d291906133d6565b60405180910390f35b6103f560048036038101906103f091906129e9565b611023565b005b60006104028261111b565b9050919050565b60606000805461041890613935565b80601f016020809104026020016040519081016040528092919081815260200182805461044490613935565b80156104915780601f1061046657610100808354040283529160200191610491565b820191906000526020600020905b81548152906001019060200180831161047457829003601f168201915b5050505050905090565b60006104a682611195565b6104e5576040517f08c379a00000000000000000000000000000000000000000000000000000000081526004016104dc906135f3565b60405180910390fd5b6004600083815260200190815260200160002060009054906101000a900473ffffffffffffffffffffffffffffffffffffffff169050919050565b600061052b82610801565b90508073ffffffffffffffffffffffffffffffffffffffff168373ffffffffffffffffffffffffffffffffffffffff16141561059c576040517f08c379a000000000000000000000000000000000000000000000000000000000815260040161059390613653565b60405180910390fd5b8073ffffffffffffffffffffffffffffffffffffffff166105bb611201565b73ffffffffffffffffffffffffffffffffffffffff1614806105ea57506105e9816105e4611201565b610f8f565b5b610629576040517f08c379a000000000000000000000000000000000000000000000000000000000815260040161062090613533565b60405180910390fd5b6106338383611209565b505050565b6000600880549050905090565b610656610650611201565b826112c2565b610695576040517f08c379a000000000000000000000000000000000000000000000000000000000815260040161068c90613673565b60405180910390fd5b6106a08383836113a0565b505050565b60006106b0836108b3565b82106106f1576040517f08c379a00000000000000000000000000000000000000000000000000000000081526004016106e890613413565b60405180910390fd5b600660008473ffffffffffffffffffffffffffffffffffffffff1673ffffffffffffffffffffffffffffffffffffffff168152602001908152602001600020600083815260200190815260200160002054905092915050565b61076583838360405180602001604052806000815250610ac5565b505050565b6000610774610638565b82106107b5576040517f08c379a00000000000000000000000000000000000000000000000000000000081526004016107ac90613693565b60405180910390fd5b600882815481106107ef577f4e487b7100000000000000000000000000000000000000000000000000000000600052603260045260246000fd5b90600052602060002001549050919050565b6000806002600084815260200190815260200160002060009054906101000a900473ffffffffffffffffffffffffffffffffffffffff169050600073ffffffffffffffffffffffffffffffffffffffff168173ffffffffffffffffffffffffffffffffffffffff1614156108aa576040517f08c379a00000000000000000000000000000000000000000000000000000000081526004016108a190613573565b60405180910390fd5b80915050919050565b60008073ffffffffffffffffffffffffffffffffffffffff168273ffffffffffffffffffffffffffffffffffffffff161415610924576040517f08c379a000000000000000000000000000000000000000000000000000000000815260040161091b90613553565b60405180910390fd5b600360008373ffffffffffffffffffffffffffffffffffffffff1673ffffffffffffffffffffffffffffffffffffffff168152602001908152602001600020549050919050565b610973611201565b73ffffffffffffffffffffffffffffffffffffffff166109916109f3565b73ffffffffffffffffffffffffffffffffffffffff16146109e7576040517f08c379a00000000000000000000000000000000000000000000000000000000081526004016109de90613613565b60405180910390fd5b6109f16000611607565b565b6000600b60009054906101000a900473ffffffffffffffffffffffffffffffffffffffff16905090565b606060018054610a2c90613935565b80601f0160208091040260200160405190810160405280929190818152602001828054610a5890613935565b8015610aa55780601f10610a7a57610100808354040283529160200191610aa5565b820191906000526020600020905b815481529060010190602001808311610a8857829003601f168201915b5050505050905090565b610ac1610aba611201565b83836116cd565b5050565b610ad6610ad0611201565b836112c2565b610b15576040517f08c379a0000000000000000000000000000000000000000000000000000000008152600401610b0c90613673565b60405180910390fd5b610b218484848461183a565b50505050565b60606000600c60009054906101000a900473ffffffffffffffffffffffffffffffffffffffff1673ffffffffffffffffffffffffffffffffffffffff16635d5e14ae846040518263ffffffff1660e01b8152600401610b8691906136b3565b60006040518083038186803b158015610b9e57600080fd5b505afa158015610bb2573d6000803e3d6000fd5b505050506040513d6000823e3d601f19601f82011682018060405250810190610bdb9190612bf7565b90506000815111610c21576040517f08c379a0000000000000000000000000000000000000000000000000000000008152600401610c1890613513565b60405180910390fd5b6000610c2c84611896565b604051602001610c3c9190613342565b604051602081830303815290604052905060005b8251811015610f6b5781610ca7848381518110610c96577f4e487b7100000000000000000000000000000000000000000000000000000000600052603260045260246000fd5b6020026020010151600001516119e8565b604051602001610cb89291906131e4565b604051602081830303815290604052915081610d17848381518110610d06577f4e487b7100000000000000000000000000000000000000000000000000000000600052603260045260246000fd5b6020026020010151602001516119e8565b604051602001610d289291906132c2565b604051602081830303815290604052915081610d87848381518110610d76577f4e487b7100000000000000000000000000000000000000000000000000000000600052603260045260246000fd5b6020026020010151604001516119e8565b604051602001610d98929190613293565b604051602081830303815290604052915081610df7848381518110610de6577f4e487b7100000000000000000000000000000000000000000000000000000000600052603260045260246000fd5b6020026020010151606001516119e8565b604051602001610e08929190613213565b604051602081830303815290604052915081610e67848381518110610e56577f4e487b7100000000000000000000000000000000000000000000000000000000600052603260045260246000fd5b6020026020010151608001516119e8565b604051602001610e78929190613313565b604051602081830303815290604052915081610ed7848381518110610ec6577f4e487b7100000000000000000000000000000000000000000000000000000000600052603260045260246000fd5b602002602001015160a001516119e8565b604051602001610ee8929190613264565b604051602081830303815290604052915060018351610f07919061384b565b811415610f355781604051602001610f1f9190613242565b6040516020818303038152906040529150610f58565b81604051602001610f4691906132f1565b60405160208183030381529060405291505b8080610f6390613998565b915050610c50565b508092505050919050565b610f808383611b95565b610f8a8282611bb3565b505050565b6000600560008473ffffffffffffffffffffffffffffffffffffffff1673ffffffffffffffffffffffffffffffffffffffff16815260200190815260200160002060008373ffffffffffffffffffffffffffffffffffffffff1673ffffffffffffffffffffffffffffffffffffffff16815260200190815260200160002060009054906101000a900460ff16905092915050565b61102b611201565b73ffffffffffffffffffffffffffffffffffffffff166110496109f3565b73ffffffffffffffffffffffffffffffffffffffff161461109f576040517f08c379a000000000000000000000000000000000000000000000000000000000815260040161109690613613565b60405180910390fd5b600073ffffffffffffffffffffffffffffffffffffffff168173ffffffffffffffffffffffffffffffffffffffff16141561110f576040517f08c379a000000000000000000000000000000000000000000000000000000000815260040161110690613453565b60405180910390fd5b61111881611607565b50565b60007f780e9d63000000000000000000000000000000000000000000000000000000007bffffffffffffffffffffffffffffffffffffffffffffffffffffffff1916827bffffffffffffffffffffffffffffffffffffffffffffffffffffffff1916148061118e575061118d82611c27565b5b9050919050565b60008073ffffffffffffffffffffffffffffffffffffffff166002600084815260200190815260200160002060009054906101000a900473ffffffffffffffffffffffffffffffffffffffff1673ffffffffffffffffffffffffffffffffffffffff1614159050919050565b600033905090565b816004600083815260200190815260200160002060006101000a81548173ffffffffffffffffffffffffffffffffffffffff021916908373ffffffffffffffffffffffffffffffffffffffff160217905550808273ffffffffffffffffffffffffffffffffffffffff1661127c83610801565b73ffffffffffffffffffffffffffffffffffffffff167f8c5be1e5ebec7d5bd14f71427d1e84f3dd0314c0f7b2291e5b200ac8c7c3b92560405160405180910390a45050565b60006112cd82611195565b61130c576040517f08c379a0000000000000000000000000000000000000000000000000000000008152600401611303906134f3565b60405180910390fd5b600061131783610801565b90508073ffffffffffffffffffffffffffffffffffffffff168473ffffffffffffffffffffffffffffffffffffffff16148061138657508373ffffffffffffffffffffffffffffffffffffffff1661136e8461049b565b73ffffffffffffffffffffffffffffffffffffffff16145b8061139757506113968185610f8f565b5b91505092915050565b8273ffffffffffffffffffffffffffffffffffffffff166113c082610801565b73ffffffffffffffffffffffffffffffffffffffff1614611416576040517f08c379a000000000000000000000000000000000000000000000000000000000815260040161140d90613473565b60405180910390fd5b600073ffffffffffffffffffffffffffffffffffffffff168273ffffffffffffffffffffffffffffffffffffffff161415611486576040517f08c379a000000000000000000000000000000000000000000000000000000000815260040161147d906134b3565b60405180910390fd5b611491838383611d09565b61149c600082611209565b6001600360008573ffffffffffffffffffffffffffffffffffffffff1673ffffffffffffffffffffffffffffffffffffffff16815260200190815260200160002060008282546114ec919061384b565b925050819055506001600360008473ffffffffffffffffffffffffffffffffffffffff1673ffffffffffffffffffffffffffffffffffffffff168152602001908152602001600020600082825461154391906137c4565b92505081905550816002600083815260200190815260200160002060006101000a81548173ffffffffffffffffffffffffffffffffffffffff021916908373ffffffffffffffffffffffffffffffffffffffff160217905550808273ffffffffffffffffffffffffffffffffffffffff168473ffffffffffffffffffffffffffffffffffffffff167fddf252ad1be2c89b69c2b068fc378daa952ba7f163c4a11628f55a4df523b3ef60405160405180910390a4611602838383611d19565b505050565b6000600b60009054906101000a900473ffffffffffffffffffffffffffffffffffffffff16905081600b60006101000a81548173ffffffffffffffffffffffffffffffffffffffff021916908373ffffffffffffffffffffffffffffffffffffffff1602179055508173ffffffffffffffffffffffffffffffffffffffff168173ffffffffffffffffffffffffffffffffffffffff167f8be0079c531659141344cd1fd0a4f28419497f9722a3daafe3b4186f6b6457e060405160405180910390a35050565b8173ffffffffffffffffffffffffffffffffffffffff168373ffffffffffffffffffffffffffffffffffffffff16141561173c576040517f08c379a0000000000000000000000000000000000000000000000000000000008152600401611733906134d3565b60405180910390fd5b80600560008573ffffffffffffffffffffffffffffffffffffffff1673ffffffffffffffffffffffffffffffffffffffff16815260200190815260200160002060008473ffffffffffffffffffffffffffffffffffffffff1673ffffffffffffffffffffffffffffffffffffffff16815260200190815260200160002060006101000a81548160ff0219169083151502179055508173ffffffffffffffffffffffffffffffffffffffff168373ffffffffffffffffffffffffffffffffffffffff167f17307eab39ab6107e8899845ad3d59bd9653f200f220920489ca2b5937696c318360405161182d91906133d6565b60405180910390a3505050565b6118458484846113a0565b61185184848484611d1e565b611890576040517f08c379a000000000000000000000000000000000000000000000000000000000815260040161188790613433565b60405180910390fd5b50505050565b60606118a182611195565b6118e0576040517f08c379a00000000000000000000000000000000000000000000000000000000081526004016118d7906135d3565b60405180910390fd5b6000600a6000848152602001908152602001600020805461190090613935565b80601f016020809104026020016040519081016040528092919081815260200182805461192c90613935565b80156119795780601f1061194e57610100808354040283529160200191611979565b820191906000526020600020905b81548152906001019060200180831161195c57829003601f168201915b50505050509050600061198a611eb5565b90506000815114156119a05781925050506119e3565b6000825111156119d55780826040516020016119bd9291906131c0565b604051602081830303815290604052925050506119e3565b6119de84611ecc565b925050505b919050565b60606000821415611a30576040518060400160405280600181526020017f30000000000000000000000000000000000000000000000000000000000000008152509050611b90565b600082905060005b60008214611a62578080611a4b90613998565b915050600a82611a5b919061381a565b9150611a38565b60008167ffffffffffffffff811115611aa4577f4e487b7100000000000000000000000000000000000000000000000000000000600052604160045260246000fd5b6040519080825280601f01601f191660200182016040528015611ad65781602001600182028036833780820191505090505b5090505b60008514611b8957600182611aef919061384b565b9150600a85611afe91906139e1565b6030611b0a91906137c4565b60f81b818381518110611b46577f4e487b7100000000000000000000000000000000000000000000000000000000600052603260045260246000fd5b60200101907effffffffffffffffffffffffffffffffffffffffffffffffffffffffffffff1916908160001a905350600a85611b82919061381a565b9450611ada565b8093505050505b919050565b611baf828260405180602001604052806000815250611f73565b5050565b611bbc82611195565b611bfb576040517f08c379a0000000000000000000000000000000000000000000000000000000008152600401611bf290613593565b60405180910390fd5b80600a60008481526020019081526020016000209080519060200190611c229291906126c6565b505050565b60007f80ac58cd000000000000000000000000000000000000000000000000000000007bffffffffffffffffffffffffffffffffffffffffffffffffffffffff1916827bffffffffffffffffffffffffffffffffffffffffffffffffffffffff19161480611cf257507f5b5e139f000000000000000000000000000000000000000000000000000000007bffffffffffffffffffffffffffffffffffffffffffffffffffffffff1916827bffffffffffffffffffffffffffffffffffffffffffffffffffffffff1916145b80611d025750611d0182611fce565b5b9050919050565b611d14838383612038565b505050565b505050565b6000611d3f8473ffffffffffffffffffffffffffffffffffffffff1661214c565b15611ea8578373ffffffffffffffffffffffffffffffffffffffff1663150b7a02611d68611201565b8786866040518563ffffffff1660e01b8152600401611d8a949392919061338a565b602060405180830381600087803b158015611da457600080fd5b505af1925050508015611dd557506040513d601f19601f82011682018060405250810190611dd29190612c61565b60015b611e58573d8060008114611e05576040519150601f19603f3d011682016040523d82523d6000602084013e611e0a565b606091505b50600081511415611e50576040517f08c379a0000000000000000000000000000000000000000000000000000000008152600401611e4790613433565b60405180910390fd5b805181602001fd5b63150b7a0260e01b7bffffffffffffffffffffffffffffffffffffffffffffffffffffffff1916817bffffffffffffffffffffffffffffffffffffffffffffffffffffffff191614915050611ead565b600190505b949350505050565b606060405180602001604052806000815250905090565b6060611ed782611195565b611f16576040517f08c379a0000000000000000000000000000000000000000000000000000000008152600401611f0d90613633565b60405180910390fd5b6000611f20611eb5565b90506000815111611f405760405180602001604052806000815250611f6b565b80611f4a846119e8565b604051602001611f5b9291906131c0565b6040516020818303038152906040525b915050919050565b611f7d838361216f565b611f8a6000848484611d1e565b611fc9576040517f08c379a0000000000000000000000000000000000000000000000000000000008152600401611fc090613433565b60405180910390fd5b505050565b60007f01ffc9a7000000000000000000000000000000000000000000000000000000007bffffffffffffffffffffffffffffffffffffffffffffffffffffffff1916827bffffffffffffffffffffffffffffffffffffffffffffffffffffffff1916149050919050565b612043838383612349565b600073ffffffffffffffffffffffffffffffffffffffff168373ffffffffffffffffffffffffffffffffffffffff161415612086576120818161234e565b6120c5565b8173ffffffffffffffffffffffffffffffffffffffff168373ffffffffffffffffffffffffffffffffffffffff16146120c4576120c38382612397565b5b5b600073ffffffffffffffffffffffffffffffffffffffff168273ffffffffffffffffffffffffffffffffffffffff1614156121085761210381612504565b612147565b8273ffffffffffffffffffffffffffffffffffffffff168273ffffffffffffffffffffffffffffffffffffffff1614612146576121458282612647565b5b5b505050565b6000808273ffffffffffffffffffffffffffffffffffffffff163b119050919050565b600073ffffffffffffffffffffffffffffffffffffffff168273ffffffffffffffffffffffffffffffffffffffff1614156121df576040517f08c379a00000000000000000000000000000000000000000000000000000000081526004016121d6906135b3565b60405180910390fd5b6121e881611195565b15612228576040517f08c379a000000000000000000000000000000000000000000000000000000000815260040161221f90613493565b60405180910390fd5b61223460008383611d09565b6001600360008473ffffffffffffffffffffffffffffffffffffffff1673ffffffffffffffffffffffffffffffffffffffff168152602001908152602001600020600082825461228491906137c4565b92505081905550816002600083815260200190815260200160002060006101000a81548173ffffffffffffffffffffffffffffffffffffffff021916908373ffffffffffffffffffffffffffffffffffffffff160217905550808273ffffffffffffffffffffffffffffffffffffffff16600073ffffffffffffffffffffffffffffffffffffffff167fddf252ad1be2c89b69c2b068fc378daa952ba7f163c4a11628f55a4df523b3ef60405160405180910390a461234560008383611d19565b5050565b505050565b6008805490506009600083815260200190815260200160002081905550600881908060018154018082558091505060019003906000526020600020016000909190919091505550565b600060016123a4846108b3565b6123ae919061384b565b9050600060076000848152602001908152602001600020549050818114612493576000600660008673ffffffffffffffffffffffffffffffffffffffff1673ffffffffffffffffffffffffffffffffffffffff168152602001908152602001600020600084815260200190815260200160002054905080600660008773ffffffffffffffffffffffffffffffffffffffff1673ffffffffffffffffffffffffffffffffffffffff168152602001908152602001600020600084815260200190815260200160002081905550816007600083815260200190815260200160002081905550505b6007600084815260200190815260200160002060009055600660008573ffffffffffffffffffffffffffffffffffffffff1673ffffffffffffffffffffffffffffffffffffffff16815260200190815260200160002060008381526020019081526020016000206000905550505050565b60006001600880549050612518919061384b565b905060006009600084815260200190815260200160002054905060006008838154811061256e577f4e487b7100000000000000000000000000000000000000000000000000000000600052603260045260246000fd5b9060005260206000200154905080600883815481106125b6577f4e487b7100000000000000000000000000000000000000000000000000000000600052603260045260246000fd5b90600052602060002001819055508160096000838152602001908152602001600020819055506009600085815260200190815260200160002060009055600880548061262b577f4e487b7100000000000000000000000000000000000000000000000000000000600052603160045260246000fd5b6001900381819060005260206000200160009055905550505050565b6000612652836108b3565b905081600660008573ffffffffffffffffffffffffffffffffffffffff1673ffffffffffffffffffffffffffffffffffffffff168152602001908152602001600020600083815260200190815260200160002081905550806007600084815260200190815260200160002081905550505050565b8280546126d290613935565b90600052602060002090601f0160209004810192826126f4576000855561273b565b82601f1061270d57805160ff191683800117855561273b565b8280016001018555821561273b579182015b8281111561273a57825182559160200191906001019061271f565b5b509050612748919061274c565b5090565b5b8082111561276557600081600090555060010161274d565b5090565b600061277c612777846136f3565b6136ce565b905080838252602082019050828560c086028201111561279b57600080fd5b60005b858110156127cb57816127b18882612923565b845260208401935060c0830192505060018101905061279e565b5050509392505050565b60006127e86127e38461371f565b6136ce565b90508281526020810184848401111561280057600080fd5b61280b8482856138f3565b509392505050565b600061282661282184613750565b6136ce565b90508281526020810184848401111561283e57600080fd5b6128498482856138f3565b509392505050565b6000813590506128608161425c565b92915050565b600082601f83011261287757600080fd5b8151612887848260208601612769565b91505092915050565b60008135905061289f81614273565b92915050565b6000813590506128b48161428a565b92915050565b6000815190506128c98161428a565b92915050565b600082601f8301126128e057600080fd5b81356128f08482602086016127d5565b91505092915050565b600082601f83011261290a57600080fd5b813561291a848260208601612813565b91505092915050565b600060c0828403121561293557600080fd5b61293f60c06136ce565b9050600061294f848285016129d4565b6000830152506020612963848285016129d4565b6020830152506040612977848285016129d4565b604083015250606061298b848285016129d4565b606083015250608061299f848285016129d4565b60808301525060a06129b3848285016129d4565b60a08301525092915050565b6000813590506129ce816142a1565b92915050565b6000815190506129e3816142a1565b92915050565b6000602082840312156129fb57600080fd5b6000612a0984828501612851565b91505092915050565b60008060408385031215612a2557600080fd5b6000612a3385828601612851565b9250506020612a4485828601612851565b9150509250929050565b600080600060608486031215612a6357600080fd5b6000612a7186828701612851565b9350506020612a8286828701612851565b9250506040612a93868287016129bf565b9150509250925092565b60008060008060808587031215612ab357600080fd5b6000612ac187828801612851565b9450506020612ad287828801612851565b9350506040612ae3878288016129bf565b925050606085013567ffffffffffffffff811115612b0057600080fd5b612b0c878288016128cf565b91505092959194509250565b60008060408385031215612b2b57600080fd5b6000612b3985828601612851565b9250506020612b4a85828601612890565b9150509250929050565b60008060408385031215612b6757600080fd5b6000612b7585828601612851565b9250506020612b86858286016129bf565b9150509250929050565b600080600060608486031215612ba557600080fd5b6000612bb386828701612851565b9350506020612bc4868287016129bf565b925050604084013567ffffffffffffffff811115612be157600080fd5b612bed868287016128f9565b9150509250925092565b600060208284031215612c0957600080fd5b600082015167ffffffffffffffff811115612c2357600080fd5b612c2f84828501612866565b91505092915050565b600060208284031215612c4a57600080fd5b6000612c58848285016128a5565b91505092915050565b600060208284031215612c7357600080fd5b6000612c81848285016128ba565b91505092915050565b600060208284031215612c9c57600080fd5b6000612caa848285016129bf565b91505092915050565b612cbc8161387f565b82525050565b612ccb81613891565b82525050565b6000612cdc82613781565b612ce68185613797565b9350612cf6818560208601613902565b612cff81613ace565b840191505092915050565b6000612d158261378c565b612d1f81856137a8565b9350612d2f818560208601613902565b612d3881613ace565b840191505092915050565b6000612d4e8261378c565b612d5881856137b9565b9350612d68818560208601613902565b80840191505092915050565b6000612d81602b836137a8565b9150612d8c82613adf565b604082019050919050565b6000612da46032836137a8565b9150612daf82613b2e565b604082019050919050565b6000612dc76026836137a8565b9150612dd282613b7d565b604082019050919050565b6000612dea6025836137a8565b9150612df582613bcc565b604082019050919050565b6000612e0d601c836137a8565b9150612e1882613c1b565b602082019050919050565b6000612e30600a836137b9565b9150612e3b82613c44565b600a82019050919050565b6000612e536023836137b9565b9150612e5e82613c6d565b602382019050919050565b6000612e766024836137a8565b9150612e8182613cbc565b604082019050919050565b6000612e996019836137a8565b9150612ea482613d0b565b602082019050919050565b6000612ebc602c836137a8565b9150612ec782613d34565b604082019050919050565b6000612edf601a836137a8565b9150612eea82613d83565b602082019050919050565b6000612f026011836137b9565b9150612f0d82613dac565b601182019050919050565b6000612f256002836137b9565b9150612f3082613dd5565b600282019050919050565b6000612f486038836137a8565b9150612f5382613dfe565b604082019050919050565b6000612f6b602a836137a8565b9150612f7682613e4d565b604082019050919050565b6000612f8e6029836137a8565b9150612f9982613e9c565b604082019050919050565b6000612fb1602e836137a8565b9150612fbc82613eeb565b604082019050919050565b6000612fd46018836137b9565b9150612fdf82613f3a565b601882019050919050565b6000612ff76020836137a8565b915061300282613f63565b602082019050919050565b600061301a6031836137a8565b915061302582613f8c565b604082019050919050565b600061303d602c836137a8565b915061304882613fdb565b604082019050919050565b60006130606008836137b9565b915061306b8261402a565b600882019050919050565b60006130836020836137a8565b915061308e82614053565b602082019050919050565b60006130a66012836137b9565b91506130b18261407c565b601282019050919050565b60006130c9602f836137a8565b91506130d4826140a5565b604082019050919050565b60006130ec6021836137a8565b91506130f7826140f4565b604082019050919050565b600061310f600f836137b9565b915061311a82614143565b600f82019050919050565b60006131326031836137a8565b915061313d8261416c565b604082019050919050565b6000613155602c836137a8565b9150613160826141bb565b604082019050919050565b60006131786003836137b9565b91506131838261420a565b600382019050919050565b600061319b600c836137b9565b91506131a682614233565b600c82019050919050565b6131ba816138e9565b82525050565b60006131cc8285612d43565b91506131d88284612d43565b91508190509392505050565b60006131f08285612d43565b91506131fb82612e23565b91506132078284612d43565b91508190509392505050565b600061321f8285612d43565b915061322a82612ef5565b91506132368284612d43565b91508190509392505050565b600061324e8284612d43565b915061325982612f18565b915081905092915050565b60006132708285612d43565b915061327b82612fc7565b91506132878284612d43565b91508190509392505050565b600061329f8285612d43565b91506132aa82613053565b91506132b68284612d43565b91508190509392505050565b60006132ce8285612d43565b91506132d982613102565b91506132e58284612d43565b91508190509392505050565b60006132fd8284612d43565b91506133088261316b565b915081905092915050565b600061331f8285612d43565b915061332a8261318e565b91506133368284612d43565b91508190509392505050565b600061334d82612e46565b91506133598284612d43565b915061336482613099565b915081905092915050565b60006020820190506133846000830184612cb3565b92915050565b600060808201905061339f6000830187612cb3565b6133ac6020830186612cb3565b6133b960408301856131b1565b81810360608301526133cb8184612cd1565b905095945050505050565b60006020820190506133eb6000830184612cc2565b92915050565b6000602082019050818103600083015261340b8184612d0a565b905092915050565b6000602082019050818103600083015261342c81612d74565b9050919050565b6000602082019050818103600083015261344c81612d97565b9050919050565b6000602082019050818103600083015261346c81612dba565b9050919050565b6000602082019050818103600083015261348c81612ddd565b9050919050565b600060208201905081810360008301526134ac81612e00565b9050919050565b600060208201905081810360008301526134cc81612e69565b9050919050565b600060208201905081810360008301526134ec81612e8c565b9050919050565b6000602082019050818103600083015261350c81612eaf565b9050919050565b6000602082019050818103600083015261352c81612ed2565b9050919050565b6000602082019050818103600083015261354c81612f3b565b9050919050565b6000602082019050818103600083015261356c81612f5e565b9050919050565b6000602082019050818103600083015261358c81612f81565b9050919050565b600060208201905081810360008301526135ac81612fa4565b9050919050565b600060208201905081810360008301526135cc81612fea565b9050919050565b600060208201905081810360008301526135ec8161300d565b9050919050565b6000602082019050818103600083015261360c81613030565b9050919050565b6000602082019050818103600083015261362c81613076565b9050919050565b6000602082019050818103600083015261364c816130bc565b9050919050565b6000602082019050818103600083015261366c816130df565b9050919050565b6000602082019050818103600083015261368c81613125565b9050919050565b600060208201905081810360008301526136ac81613148565b9050919050565b60006020820190506136c860008301846131b1565b92915050565b60006136d86136e9565b90506136e48282613967565b919050565b6000604051905090565b600067ffffffffffffffff82111561370e5761370d613a9f565b5b602082029050602081019050919050565b600067ffffffffffffffff82111561373a57613739613a9f565b5b61374382613ace565b9050602081019050919050565b600067ffffffffffffffff82111561376b5761376a613a9f565b5b61377482613ace565b9050602081019050919050565b600081519050919050565b600081519050919050565b600082825260208201905092915050565b600082825260208201905092915050565b600081905092915050565b60006137cf826138e9565b91506137da836138e9565b9250827fffffffffffffffffffffffffffffffffffffffffffffffffffffffffffffffff0382111561380f5761380e613a12565b5b828201905092915050565b6000613825826138e9565b9150613830836138e9565b9250826138405761383f613a41565b5b828204905092915050565b6000613856826138e9565b9150613861836138e9565b92508282101561387457613873613a12565b5b828203905092915050565b600061388a826138c9565b9050919050565b60008115159050919050565b60007fffffffff0000000000000000000000000000000000000000000000000000000082169050919050565b600073ffffffffffffffffffffffffffffffffffffffff82169050919050565b6000819050919050565b82818337600083830152505050565b60005b83811015613920578082015181840152602081019050613905565b8381111561392f576000848401525b50505050565b6000600282049050600182168061394d57607f821691505b6020821081141561396157613960613a70565b5b50919050565b61397082613ace565b810181811067ffffffffffffffff8211171561398f5761398e613a9f565b5b80604052505050565b60006139a3826138e9565b91507fffffffffffffffffffffffffffffffffffffffffffffffffffffffffffffffff8214156139d6576139d5613a12565b5b600182019050919050565b60006139ec826138e9565b91506139f7836138e9565b925082613a0757613a06613a41565b5b828206905092915050565b7f4e487b7100000000000000000000000000000000000000000000000000000000600052601160045260246000fd5b7f4e487b7100000000000000000000000000000000000000000000000000000000600052601260045260246000fd5b7f4e487b7100000000000000000000000000000000000000000000000000000000600052602260045260246000fd5b7f4e487b7100000000000000000000000000000000000000000000000000000000600052604160045260246000fd5b6000601f19601f8301169050919050565b7f455243373231456e756d657261626c653a206f776e657220696e646578206f7560008201527f74206f6620626f756e6473000000000000000000000000000000000000000000602082015250565b7f4552433732313a207472616e7366657220746f206e6f6e20455243373231526560008201527f63656976657220696d706c656d656e7465720000000000000000000000000000602082015250565b7f4f776e61626c653a206e6577206f776e657220697320746865207a65726f206160008201527f6464726573730000000000000000000000000000000000000000000000000000602082015250565b7f4552433732313a207472616e736665722066726f6d20696e636f72726563742060008201527f6f776e6572000000000000000000000000000000000000000000000000000000602082015250565b7f4552433732313a20746f6b656e20616c7265616479206d696e74656400000000600082015250565b7f7b226261746368223a2000000000000000000000000000000000000000000000600082015250565b7f7b227469746c65223a202253616c756d696e61746f72222c2022696d6167652260008201527f3a20220000000000000000000000000000000000000000000000000000000000602082015250565b7f4552433732313a207472616e7366657220746f20746865207a65726f2061646460008201527f7265737300000000000000000000000000000000000000000000000000000000602082015250565b7f4552433732313a20617070726f766520746f2063616c6c657200000000000000600082015250565b7f4552433732313a206f70657261746f7220717565727920666f72206e6f6e657860008201527f697374656e7420746f6b656e0000000000000000000000000000000000000000602082015250565b7f4e6f2074656c656d6574727920666f7220746865206261746368000000000000600082015250565b7f2c202274656d7065726174757265223a20000000000000000000000000000000600082015250565b7f7d5d000000000000000000000000000000000000000000000000000000000000600082015250565b7f4552433732313a20617070726f76652063616c6c6572206973206e6f74206f7760008201527f6e6572206e6f7220617070726f76656420666f7220616c6c0000000000000000602082015250565b7f4552433732313a2062616c616e636520717565727920666f7220746865207a6560008201527f726f206164647265737300000000000000000000000000000000000000000000602082015250565b7f4552433732313a206f776e657220717565727920666f72206e6f6e657869737460008201527f656e7420746f6b656e0000000000000000000000000000000000000000000000602082015250565b7f45524337323155524953746f726167653a2055524920736574206f66206e6f6e60008201527f6578697374656e7420746f6b656e000000000000000000000000000000000000602082015250565b7f2c2022616d6269656e7454656d7065726174757265223a200000000000000000600082015250565b7f4552433732313a206d696e7420746f20746865207a65726f2061646472657373600082015250565b7f45524337323155524953746f726167653a2055524920717565727920666f722060008201527f6e6f6e6578697374656e7420746f6b656e000000000000000000000000000000602082015250565b7f4552433732313a20617070726f76656420717565727920666f72206e6f6e657860008201527f697374656e7420746f6b656e0000000000000000000000000000000000000000602082015250565b7f2c20227068223a20000000000000000000000000000000000000000000000000600082015250565b7f4f776e61626c653a2063616c6c6572206973206e6f7420746865206f776e6572600082015250565b7f222c202270726f70657274696573223a205b0000000000000000000000000000600082015250565b7f4552433732314d657461646174613a2055524920717565727920666f72206e6f60008201527f6e6578697374656e7420746f6b656e0000000000000000000000000000000000602082015250565b7f4552433732313a20617070726f76616c20746f2063757272656e74206f776e6560008201527f7200000000000000000000000000000000000000000000000000000000000000602082015250565b7f2c202274696d657374616d70223a200000000000000000000000000000000000600082015250565b7f4552433732313a207472616e736665722063616c6c6572206973206e6f74206f60008201527f776e6572206e6f7220617070726f766564000000000000000000000000000000602082015250565b7f455243373231456e756d657261626c653a20676c6f62616c20696e646578206f60008201527f7574206f6620626f756e64730000000000000000000000000000000000000000602082015250565b7f7d2c200000000000000000000000000000000000000000000000000000000000600082015250565b7f2c2022776569676874223a200000000000000000000000000000000000000000600082015250565b6142658161387f565b811461427057600080fd5b50565b61427c81613891565b811461428757600080fd5b50565b6142938161389d565b811461429e57600080fd5b50565b6142aa816138e9565b81146142b557600080fd5b5056fea2646970667358221220460bb175767e5a270899f480d1276400064f807e739403ab7ec97b7e502ac61864736f6c63430008040033",
  "linkReferences": {},
  "deployedLinkReferences": {}
}