{
  "_format": "hh-sol-artifact-1",
  "contractName": "SaluminatorTelemetry",
  "sourceName": "contracts/Saluminator.sol",
  "abi": [
    {
      "inputs": [
        {
          "internalType": "uint256",
          "name": "batch",
          "type": "uint256"
        }
      ],
      "name": "viewTelemetryForBatch",
      "outputs": [
        {
          "components": [
            {
              "internalType": "uint256",
              "name": "batch",
              "type": "uint256"
            },
            {
              "internalType": "uint256",
              "name": "timestamp",
              "type": "uint256"
            },
            {
              "internalType": "uint256",
              "name": "ph",
              "type": "uint256"
            },
            {
              "internalType": "uint256",
              "name": "temperature",
              "type": "uint256"
            },
            {
              "internalType": "uint256",
              "name": "weight",
              "type": "uint256"
            },
            {
              "internalType": "uint256",
              "name": "ambientTemperature",
              "type": "uint256"
            }
          ],
          "internalType": "struct SaluminatorTelemetry.Telemetry[]",
          "name": "",
          "type": "tuple[]"
        }
      ],
      "stateMutability": "view",
      "type": "function"
    }
  ],
  "bytecode": "0x608060405234801561001057600080fd5b50610257806100206000396000f3fe608060405234801561001057600080fd5b506004361061002b5760003560e01c80635d5e14ae14610030575b600080fd5b61004a6004803603810190610045919061007c565b610060565b60405161005791906101a5565b60405180910390f35b6060919050565b6000813590506100768161020a565b92915050565b60006020828403121561008e57600080fd5b600061009c84828501610067565b91505092915050565b60006100b1838361011b565b60c08301905092915050565b60006100c8826101d7565b6100d281856101ef565b93506100dd836101c7565b8060005b8381101561010e5781516100f588826100a5565b9750610100836101e2565b9250506001810190506100e1565b5085935050505092915050565b60c0820160008201516101316000850182610196565b5060208201516101446020850182610196565b5060408201516101576040850182610196565b50606082015161016a6060850182610196565b50608082015161017d6080850182610196565b5060a082015161019060a0850182610196565b50505050565b61019f81610200565b82525050565b600060208201905081810360008301526101bf81846100bd565b905092915050565b6000819050602082019050919050565b600081519050919050565b6000602082019050919050565b600082825260208201905092915050565b6000819050919050565b61021381610200565b811461021e57600080fd5b5056fea264697066735822122040bf5f5866ee6ec2b191839044fb2553d878f5c2f6d7854ba316e4b07388404b64736f6c63430008040033",
  "linkReferences": {},
  "deployedLinkReferences": {}
}